:100000000C945D000C9485000C9485000C94850084
:100010000C9485000C9485000C9485000C9485004C
:100020000C9485000C9485000C9485000C9485003C
:100030000C9485000C9485000C9485000C9485002C
:100040000C94A4030C9485000C9485000C948500FA
:100050000C9485000C9485000C9485000C9485000C
:100060000C94EE030C9485000000000800020100CF
:100070000003040700000000000000000000000072
:10008000250028002B0000000000240027002A0083
:10009000040404040404040402020202020203032E
:1000A0000303030301020408102040800102040836
:1000B00010200102040810201C0511241FBECFEFE0
:1000C000D8E0DEBFCDBF11E0A0E0B1E0E8E6FCE0A3
:1000D00002C005900D92AE31B107D9F721E0AEE133
:1000E000B1E001C01D92A23EB207E1F710E0CDE5FC
:1000F000D0E004C02197FE010E942706CC35D1072D
:10010000C9F70E9456050C9432060C94000090E04A
:10011000FC01EC55FF4F2491FC01E057FF4F849107
:10012000882399F090E0880F991FFC01EA57FF4F50
:10013000A591B491FC01E458FF4F859194918FB73C
:10014000F894EC91E22BEC938FBF0895CF92DF925D
:10015000EF92FF920F931F93CF93DF936C017A017D
:100160008B01C0E0D0E0CE15DF0589F0D8016D919C
:100170008D01D601ED91FC910190F081E02DC60139
:100180000995892B11F47E0102C02196ECCFC7019D
:10019000DF91CF911F910F91FF90EF90DF90CF9063
:1001A000089590E0FC01E859FF4F3491FC01EC55B3
:1001B000FF4F2491FC01E057FF4FE491EE2309F437
:1001C0003BC0332339F1333091F038F43130A9F0AA
:1001D000323001F584B58F7D12C0373091F0383060
:1001E000A1F03430B9F4809180008F7D03C08091FC
:1001F00080008F77809380000DC084B58F7784BD99
:1002000009C08091B0008F7703C08091B0008F7DCE
:100210008093B000F0E0EE0FFF1FE458FF4FA59170
:10022000B4918FB7F894EC91611103C020952E23FF
:1002300001C02E2B2C938FBF08953FB7F894809167
:10024000B0019091B101A091B201B091B30126B576
:10025000A89B05C02F3F19F00196A11DB11D3FBFFE
:10026000BA2FA92F982F8827820F911DA11DB11D8C
:10027000BC01CD0142E0660F771F881F991F4A9588
:10028000D1F70895CF93DF93EC0160E08E810E9457
:10029000D10061E08E810E94D10060E08E810E94D9
:1002A000D1008BE891E00197F1F7DF91CF910895AC
:1002B000CF92DF92EF92FF920F931F93CF93DF9332
:1002C0007C016C0187E0C80ED11CC0E0D0E0062F95
:1002D00010E0B8010C2E02C0759567950A94E2F7FC
:1002E0006170F60181916F010E94D1002196C430A6
:1002F000D10579F7C701DF91CF911F910F91FF9041
:10030000EF90DF90CF900C944201CF92DF92EF926A
:10031000FF920F931F93CF93DF93EC01F62E642F80
:100320008C810E94D1008D818F3F19F060E00E9486
:10033000D1008F850F2D10E084FF25C06E0187E06E
:10034000C80ED11CE12CF12CB8010E2C02C0759501
:1003500067950A94E2F76170F60181916F010E943E
:10036000D100FFEFEF1AFF0A88E0E816F10461F709
:10037000CE01DF91CF911F910F91FF90EF90DF9011
:10038000CF900C944201B80184E0759567958A95E9
:10039000E1F7CE010E9458016F2DCE01DF91CF9180
:1003A0001F910F91FF90EF90DF90CF900C94580128
:1003B000EF92FF920F931F93CF93DF93EC014230A4
:1003C00018F08F8588608F874B8B1C8A80E48D8B1B
:1003D0006E8B70E0605C7F4F6F8B8C810E9487001A
:1003E0008D818F3F11F00E9487008E810E948700CF
:1003F0007E0187E0E80EF11C00E010E08F8584FDAF
:1004000003C084E090E002C088E090E0081719077C
:1004100044F4F70181917F010E9487000F5F1F4F15
:10042000EDCF8BE39DE00197F1F760E08C810E94B6
:10043000D10060E08E810E94D1008D818F3F19F044
:1004400060E00E94D1006F8564FD1DC063E0CE01B5
:100450000E9458010BE416E4C8010197F1F763E02C
:10046000CE010E945801C8010197F1F763E0CE0167
:100470000E94580183E592E00197F1F762E0CE0116
:100480000E94580119C0606240E0CE010E948501BF
:100490008BE496E40197F1F76F85606240E0CE014E
:1004A0000E94850183E592E00197F1F76F85606214
:1004B00040E0CE010E9485016F85606240E0CE0180
:1004C0000E94850184E0888B40E06CE0CE010E94B0
:1004D000850140E061E0CE010E9485018BE39FE150
:1004E0000197F1F782E0898B40E066E0CE01DF9171
:1004F000CF911F910F91FF90EF900C94850141E0F7
:100500000E94850181E090E0089585ED8093BC0014
:100510008091BC0084FDFCCF1092B60108954091FB
:100520006201262F30E0240F311D21323105DCF429
:100530002091B6012430C9F4FC0180E090E08617D8
:1005400058F4309162012191DC01A05CBE4FA30FF1
:10055000B11D2C930196F3CF80916201680F6093D7
:10056000620180E0089581E0089582E00895089591
:1005700081E090E03091BA012091B901321710F476
:1005800080E090E091958195910908958091BA015C
:100590009091B901891730F48F5F8093BA0180E0A0
:1005A00090E008958FEF9FEF08958091B90190E05A
:1005B0002091BA01821B91090895CF92DF92EF92A8
:1005C000FF920F931F93CF93DF937C01262F972FDA
:1005D0008A0180913F01882391F0C62FD72F6E01A9
:1005E000C40ED51ECC15DD0571F06991D701ED91D2
:1005F000FC910190F081E02DC7010995F3CF642FA4
:10060000822F0E948F02C801DF91CF911F910F911D
:10061000FF90EF90DF90CF900895CF93DF931F92DC
:10062000CDB7DEB7698320913F012223D1F020911D
:10063000B701203240F021E030E0FC013383228317
:1006400080E090E015C08091B801E82FF0E0E15E15
:10065000FE4F998190838F5F8093B8018093B7019B
:1006600005C061E0CE0101960E948F0281E090E01A
:100670000F90DF91CF910895089580E090E0089564
:10068000CF93C82F81E080933F01C0931E01109249
:10069000B8011092B7018BEB91E00E940D0380919D
:1006A000B701813208F046C09091B6019111FCCF9C
:1006B00092E09093B60191E09093B5019FEF9093F3
:1006C00087011092A9018093A801AFE1B1E028E869
:1006D00031E0F9019E2F921B981718F49D91919388
:1006E000F9CF1092AA018091AA01CC0FC82BC09318
:1006F000AA018091B401813061F41092B40180911B
:10070000AA018093BB008091BC0083FDF8CF85ECEB
:1007100001C085EE8093BC008091B6018230E1F388
:10072000809187018F3F31F080918701803211F0F5
:10073000809187011092B8011092B70110923F0189
:10074000CF9108950E942D061F920F920FB60F921F
:1007500011242F933F938F939F93AF93BF938091D7
:10076000AC019091AD01A091AE01B091AF0130917B
:10077000AB0123E0230F2D3720F40196A11DB11DFD
:1007800005C026E8230F0296A11DB11D2093AB01E1
:100790008093AC019093AD01A093AE01B093AF01F3
:1007A0008091B0019091B101A091B201B091B301DB
:1007B0000196A11DB11D8093B0019093B101A0934A
:1007C000B201B093B301BF91AF919F918F913F91CF
:1007D0002F910F900FBE0F901F9018951F920F92A0
:1007E0000FB60F9211242F933F934F935F936F9304
:1007F0007F938F939F93AF93BF93EF93FF938091DA
:10080000B900887F803609F49CC068F5883209F405
:100810005BC090F4803109F454C038F4882309F4A3
:10082000F6C0883009F44DC0F6C0883109F44CC0D8
:10083000803209F45DC0EFC0803409F468C048F428
:10084000803309F455C0883309F0E5C080938701EF
:10085000D8C0803509F44FC0883509F45DC08834AC
:1008600009F0D9C0D6C0883909F4C7C0A8F48837C0
:1008700009F467C038F4883609F463C0803709F496
:1008800060C0C9C0883809F4B8C0803909F45FC0B5
:10089000803809F0C0C05BC0803B09F486C038F4E2
:1008A000803A09F466C0883A09F47FC0B4C0803C3D
:1008B00009F4A7C0883C09F4A4C0883B09F48AC0A5
:1008C000AAC08091AA0110C09091A9018091A801AD
:1008D000981770F5E091A90181E08E0F8093A9012E
:1008E000F0E0E857FE4F80818093BB0085EC86C026
:1008F000809387018EC0E091A90181E08E0F8093E3
:10090000A9018091BB00F0E0E857FE4F80839091F1
:10091000A9018091A8016EC0E091A90181E08E0F2C
:100920008093A9018091BB00F0E0E857FE4F8083DF
:100930008091B50181116DC081E08093B40184EA9A
:1009400061C083E08093B60110928601CFCF809181
:100950008601803208F051C0E091860181E08E0F5F
:10096000809386018091BB00F0E0EA59FE4F8083BE
:10097000BDCF85EC8093BC001092B60180918601BA
:10098000803230F4E0918601F0E0EA59FE4F1082A7
:100990006091860170E0E0916401F091650186E666
:1009A00091E009951092860136C084E08093B601EB
:1009B0001092630110926201E0916001F091610177
:1009C000099580916201811105C081E080936201E7
:1009D00010924001E091630181E08E0F80936301EA
:1009E000F0E0E05CFE4F80818093BB00909163015A
:1009F00080916201981708F479CF85E88093BC0054
:100A00000AC085EC8093BC001092B60104C010921D
:100A100087010E948502FF91EF91BF91AF919F9155
:100A20008F917F916F915F914F913F912F910F9097
:100A30000FBE0F901F901895EBEBF1E0138212821E
:100A400088EE93E0A0E0B0E084839583A683B7832B
:100A500084E091E091838083EAECF1E013821282DA
:100A600086E191E09183808386E084838FEF8583A4
:100A700087E0868382E0878383E0808784E08187C4
:100A800085E082871386148615861686178641E0D0
:100A900060E1CF010E94D80181E18093C90180E12A
:100AA0008093C8018FE08093C7010895789484B53E
:100AB000826084BD84B5816084BD85B5826085BD5A
:100AC00085B5816085BD80916E00816080936E00E8
:100AD00010928100809181008260809381008091DA
:100AE000810081608093810080918000816080938B
:100AF00080008091B10084608093B1008091B0004B
:100B000081608093B00080917A00846080937A0045
:100B100080917A00826080937A0080917A0081606F
:100B200080937A0080917A00806880937A00109296
:100B3000C10044E064E18AEC91E00E94D801109287
:100B4000BA011092B9011092B8011092B701109237
:100B5000B60181E08093B5011092B40161E082E1B9
:100B60000E94D10061E083E10E94D1008091B90030
:100B70008E7F8093B9008091B9008D7F8093B900FA
:100B800088E48093B80085E48093BC0060E08FE344
:100B90000E94400360E088E30E944003EE24E39457
:100BA000F12C20E0C22E20E0D22EC0E08EEF8C0F80
:100BB000C23008F48C2F182F110F110FD0E0C23063
:100BC00010F40FE301C008E38D2F810FB70101C0BE
:100BD000660F8A95EAF7802F0E9440030E941D014C
:100BE0002B013C0184EF882E99249394A12CB12CE5
:100BF0000E941D01DC01CB0184199509A609B709E2
:100C0000883E9340A105B10558F021E0821A910871
:100C1000A108B10888EE480E83E0581E611C711CC3
:100C200081149104A104B10419F760E0802F0E949F
:100C30004003DF5FD43019F6CF5FC43009F0B6CF80
:100C4000C114D10409F4B1CF0E940000AECFEE0F61
:100C5000FF1F0590F491E02D099481E090E0F89455
:080C60000C943206F894FFCF5A
:100C6800000000000D03DD023D03B702D502C602F5
:0E0C7800B802000000007F02A6003D033C030E
:107E0000112484B714BE81FFF0D085E080938100F7
:107E100082E08093C00088E18093C10086E0809377
:107E2000C20080E18093C4008EE0C9D0259A86E02C
:107E300020E33CEF91E0309385002093840096BBD3
:107E4000B09BFECF1D9AA8958150A9F7CC24DD24C4
:107E500088248394B5E0AB2EA1E19A2EF3E0BF2EE7
:107E6000A2D0813461F49FD0082FAFD0023811F036
:107E7000013811F484E001C083E08DD089C08234E0
:107E800011F484E103C0853419F485E0A6D080C0E4
:107E9000853579F488D0E82EFF2485D0082F10E0AE
:107EA000102F00270E291F29000F111F8ED06801E7
:107EB0006FC0863521F484E090D080E0DECF843638
:107EC00009F040C070D06FD0082F6DD080E0C81688
:107ED00080E7D80618F4F601B7BEE895C0E0D1E017
:107EE00062D089930C17E1F7F0E0CF16F0E7DF06D8
:107EF00018F0F601B7BEE89568D007B600FCFDCFD4
:107F0000A601A0E0B1E02C9130E011968C91119780
:107F100090E0982F8827822B932B1296FA010C0160
:107F200087BEE89511244E5F5F4FF1E0A038BF0790
:107F300051F7F601A7BEE89507B600FCFDCF97BE46
:107F4000E89526C08437B1F42ED02DD0F82E2BD052
:107F50003CD0F601EF2C8F010F5F1F4F84911BD097
:107F6000EA94F801C1F70894C11CD11CFA94CF0C13
:107F7000D11C0EC0853739F428D08EE10CD085E9AC
:107F80000AD08FE07ACF813511F488E018D01DD067
:107F900080E101D065CF982F8091C00085FFFCCF94
:107FA0009093C60008958091C00087FFFCCF809118
:107FB000C00084FD01C0A8958091C6000895E0E648
:107FC000F0E098E1908380830895EDDF803219F02E
:107FD00088E0F5DFFFCF84E1DECF1F93182FE3DFCA
:107FE0001150E9F7F2DF1F91089580E0E8DFEE27F6
:047FF000FF270994CA
:027FFE00040479
:0400000300007E007B
:00000001FF
